{
  "contractName": "VotingSmartContract",
  "abi": [
    {
      "inputs": [],
      "stateMutability": "nonpayable",
      "type": "constructor"
    },
    {
      "inputs": [],
      "name": "adminPublicKey",
      "outputs": [
        {
          "internalType": "bytes32",
          "name": "",
          "type": "bytes32"
        }
      ],
      "stateMutability": "view",
      "type": "function",
      "constant": true
    },
    {
      "inputs": [],
      "name": "encIncrement",
      "outputs": [
        {
          "internalType": "uint256",
          "name": "",
          "type": "uint256"
        }
      ],
      "stateMutability": "view",
      "type": "function",
      "constant": true
    },
    {
      "inputs": [],
      "name": "g",
      "outputs": [
        {
          "internalType": "uint256",
          "name": "",
          "type": "uint256"
        }
      ],
      "stateMutability": "view",
      "type": "function",
      "constant": true
    },
    {
      "inputs": [],
      "name": "initialZeroCount",
      "outputs": [
        {
          "internalType": "uint256",
          "name": "",
          "type": "uint256"
        }
      ],
      "stateMutability": "view",
      "type": "function",
      "constant": true
    },
    {
      "inputs": [],
      "name": "lambda",
      "outputs": [
        {
          "internalType": "uint256",
          "name": "",
          "type": "uint256"
        }
      ],
      "stateMutability": "view",
      "type": "function",
      "constant": true
    },
    {
      "inputs": [],
      "name": "mu",
      "outputs": [
        {
          "internalType": "uint256",
          "name": "",
          "type": "uint256"
        }
      ],
      "stateMutability": "view",
      "type": "function",
      "constant": true
    },
    {
      "inputs": [],
      "name": "n",
      "outputs": [
        {
          "internalType": "uint256",
          "name": "",
          "type": "uint256"
        }
      ],
      "stateMutability": "view",
      "type": "function",
      "constant": true
    },
    {
      "inputs": [],
      "name": "nSquared",
      "outputs": [
        {
          "internalType": "uint256",
          "name": "",
          "type": "uint256"
        }
      ],
      "stateMutability": "view",
      "type": "function",
      "constant": true
    },
    {
      "inputs": [],
      "name": "numCandidatesRegistered",
      "outputs": [
        {
          "internalType": "uint256",
          "name": "",
          "type": "uint256"
        }
      ],
      "stateMutability": "view",
      "type": "function",
      "constant": true
    },
    {
      "inputs": [],
      "name": "numDeletedCandidates",
      "outputs": [
        {
          "internalType": "uint256",
          "name": "",
          "type": "uint256"
        }
      ],
      "stateMutability": "view",
      "type": "function",
      "constant": true
    },
    {
      "inputs": [],
      "name": "ownerAddress",
      "outputs": [
        {
          "internalType": "address",
          "name": "",
          "type": "address"
        }
      ],
      "stateMutability": "view",
      "type": "function",
      "constant": true
    },
    {
      "inputs": [],
      "name": "registrationPhaseCounter",
      "outputs": [
        {
          "internalType": "uint256",
          "name": "",
          "type": "uint256"
        }
      ],
      "stateMutability": "view",
      "type": "function",
      "constant": true
    },
    {
      "inputs": [
        {
          "internalType": "uint256",
          "name": "",
          "type": "uint256"
        }
      ],
      "name": "votersAddresses",
      "outputs": [
        {
          "internalType": "address",
          "name": "",
          "type": "address"
        }
      ],
      "stateMutability": "view",
      "type": "function",
      "constant": true
    },
    {
      "inputs": [],
      "name": "votingPhaseCounter",
      "outputs": [
        {
          "internalType": "uint256",
          "name": "",
          "type": "uint256"
        }
      ],
      "stateMutability": "view",
      "type": "function",
      "constant": true
    },
    {
      "inputs": [],
      "name": "getOwnerAddress",
      "outputs": [
        {
          "internalType": "address",
          "name": "",
          "type": "address"
        }
      ],
      "stateMutability": "view",
      "type": "function",
      "constant": true
    },
    {
      "inputs": [
        {
          "internalType": "string",
          "name": "_name",
          "type": "string"
        },
        {
          "internalType": "string",
          "name": "_party",
          "type": "string"
        },
        {
          "internalType": "string",
          "name": "_description",
          "type": "string"
        },
        {
          "internalType": "uint256",
          "name": "_constituency",
          "type": "uint256"
        }
      ],
      "name": "registerCandidate",
      "outputs": [],
      "stateMutability": "nonpayable",
      "type": "function"
    },
    {
      "inputs": [
        {
          "internalType": "uint256",
          "name": "uniqueID",
          "type": "uint256"
        },
        {
          "internalType": "string",
          "name": "_name",
          "type": "string"
        },
        {
          "internalType": "string",
          "name": "_party",
          "type": "string"
        },
        {
          "internalType": "string",
          "name": "_description",
          "type": "string"
        },
        {
          "internalType": "uint256",
          "name": "_constituency",
          "type": "uint256"
        }
      ],
      "name": "editCandidate",
      "outputs": [],
      "stateMutability": "nonpayable",
      "type": "function"
    },
    {
      "inputs": [
        {
          "internalType": "uint256",
          "name": "uniqueID",
          "type": "uint256"
        }
      ],
      "name": "deleteCandidate",
      "outputs": [],
      "stateMutability": "nonpayable",
      "type": "function"
    },
    {
      "inputs": [],
      "name": "getCandidatesCounter",
      "outputs": [
        {
          "internalType": "uint256",
          "name": "",
          "type": "uint256"
        }
      ],
      "stateMutability": "view",
      "type": "function",
      "constant": true
    },
    {
      "inputs": [],
      "name": "getNumCandidates",
      "outputs": [
        {
          "internalType": "uint256",
          "name": "",
          "type": "uint256"
        }
      ],
      "stateMutability": "view",
      "type": "function",
      "constant": true
    },
    {
      "inputs": [
        {
          "internalType": "bytes",
          "name": "_name",
          "type": "bytes"
        },
        {
          "internalType": "bytes",
          "name": "_cnp",
          "type": "bytes"
        },
        {
          "internalType": "uint256",
          "name": "_constituency",
          "type": "uint256"
        }
      ],
      "name": "applyToVote",
      "outputs": [],
      "stateMutability": "nonpayable",
      "type": "function"
    },
    {
      "inputs": [],
      "name": "getNumVoters",
      "outputs": [
        {
          "internalType": "uint256",
          "name": "",
          "type": "uint256"
        }
      ],
      "stateMutability": "view",
      "type": "function",
      "constant": true
    },
    {
      "inputs": [],
      "name": "getAdminPublicKey",
      "outputs": [
        {
          "internalType": "bytes32",
          "name": "",
          "type": "bytes32"
        }
      ],
      "stateMutability": "view",
      "type": "function",
      "constant": true
    },
    {
      "inputs": [
        {
          "internalType": "address",
          "name": "_address",
          "type": "address"
        }
      ],
      "name": "approveParticipationRequest",
      "outputs": [],
      "stateMutability": "nonpayable",
      "type": "function"
    },
    {
      "inputs": [
        {
          "internalType": "uint256",
          "name": "uniqueID",
          "type": "uint256"
        }
      ],
      "name": "castVote",
      "outputs": [],
      "stateMutability": "nonpayable",
      "type": "function"
    },
    {
      "inputs": [
        {
          "internalType": "bytes32",
          "name": "publishedKey",
          "type": "bytes32"
        }
      ],
      "name": "startRegistrationPhase",
      "outputs": [],
      "stateMutability": "nonpayable",
      "type": "function"
    },
    {
      "inputs": [],
      "name": "endRegistrationPhase",
      "outputs": [],
      "stateMutability": "nonpayable",
      "type": "function"
    },
    {
      "inputs": [
        {
          "internalType": "uint256",
          "name": "_g",
          "type": "uint256"
        },
        {
          "internalType": "uint256",
          "name": "_n",
          "type": "uint256"
        },
        {
          "internalType": "uint256",
          "name": "_nSquared",
          "type": "uint256"
        },
        {
          "internalType": "uint256",
          "name": "_initialZeroCount",
          "type": "uint256"
        },
        {
          "internalType": "uint256",
          "name": "_encIncrement",
          "type": "uint256"
        }
      ],
      "name": "startElection",
      "outputs": [],
      "stateMutability": "nonpayable",
      "type": "function"
    },
    {
      "inputs": [],
      "name": "endElection",
      "outputs": [],
      "stateMutability": "nonpayable",
      "type": "function"
    },
    {
      "inputs": [],
      "name": "hasRegistrationStarted",
      "outputs": [
        {
          "internalType": "bool",
          "name": "",
          "type": "bool"
        }
      ],
      "stateMutability": "view",
      "type": "function",
      "constant": true
    },
    {
      "inputs": [],
      "name": "hasRegistrationEnded",
      "outputs": [
        {
          "internalType": "bool",
          "name": "",
          "type": "bool"
        }
      ],
      "stateMutability": "view",
      "type": "function",
      "constant": true
    },
    {
      "inputs": [],
      "name": "getStartStatus",
      "outputs": [
        {
          "internalType": "bool",
          "name": "",
          "type": "bool"
        }
      ],
      "stateMutability": "view",
      "type": "function",
      "constant": true
    },
    {
      "inputs": [],
      "name": "getEndStatus",
      "outputs": [
        {
          "internalType": "bool",
          "name": "",
          "type": "bool"
        }
      ],
      "stateMutability": "view",
      "type": "function",
      "constant": true
    },
    {
      "inputs": [
        {
          "internalType": "address",
          "name": "_address",
          "type": "address"
        }
      ],
      "name": "retrieveVoterPublicData",
      "outputs": [
        {
          "components": [
            {
              "internalType": "address",
              "name": "voterAddress",
              "type": "address"
            },
            {
              "internalType": "uint256",
              "name": "constituency",
              "type": "uint256"
            },
            {
              "internalType": "bool",
              "name": "hasVoted",
              "type": "bool"
            },
            {
              "internalType": "bool",
              "name": "isVerified",
              "type": "bool"
            },
            {
              "internalType": "uint256",
              "name": "verifiedTime",
              "type": "uint256"
            },
            {
              "internalType": "uint256",
              "name": "votedTime",
              "type": "uint256"
            }
          ],
          "internalType": "struct VotingSmartContract.VoterPublicData",
          "name": "retrievedVoter",
          "type": "tuple"
        }
      ],
      "stateMutability": "view",
      "type": "function",
      "constant": true
    },
    {
      "inputs": [
        {
          "internalType": "uint256",
          "name": "uniqueID",
          "type": "uint256"
        }
      ],
      "name": "retrieveCandidatePublicData",
      "outputs": [
        {
          "components": [
            {
              "internalType": "string",
              "name": "name",
              "type": "string"
            },
            {
              "internalType": "string",
              "name": "party",
              "type": "string"
            },
            {
              "internalType": "string",
              "name": "description",
              "type": "string"
            },
            {
              "internalType": "uint256",
              "name": "constituency",
              "type": "uint256"
            },
            {
              "internalType": "uint256",
              "name": "uniqueID",
              "type": "uint256"
            }
          ],
          "internalType": "struct VotingSmartContract.CandidatePublicData",
          "name": "retrievedCandidate",
          "type": "tuple"
        }
      ],
      "stateMutability": "view",
      "type": "function",
      "constant": true
    },
    {
      "inputs": [
        {
          "internalType": "uint256",
          "name": "uniqueID",
          "type": "uint256"
        }
      ],
      "name": "retrieveAllCandidateData",
      "outputs": [
        {
          "components": [
            {
              "internalType": "string",
              "name": "name",
              "type": "string"
            },
            {
              "internalType": "string",
              "name": "party",
              "type": "string"
            },
            {
              "internalType": "string",
              "name": "description",
              "type": "string"
            },
            {
              "internalType": "uint256",
              "name": "encNumVotes",
              "type": "uint256"
            },
            {
              "internalType": "uint256",
              "name": "constituency",
              "type": "uint256"
            },
            {
              "internalType": "uint256",
              "name": "uniqueID",
              "type": "uint256"
            }
          ],
          "internalType": "struct VotingSmartContract.Candidate",
          "name": "retrievedCandidate",
          "type": "tuple"
        }
      ],
      "stateMutability": "view",
      "type": "function",
      "constant": true
    },
    {
      "inputs": [
        {
          "internalType": "address",
          "name": "_address",
          "type": "address"
        }
      ],
      "name": "retrieveAllVoterData",
      "outputs": [
        {
          "components": [
            {
              "internalType": "address",
              "name": "voterAddress",
              "type": "address"
            },
            {
              "internalType": "bytes",
              "name": "name",
              "type": "bytes"
            },
            {
              "internalType": "bytes",
              "name": "cnp",
              "type": "bytes"
            },
            {
              "internalType": "uint256",
              "name": "constituency",
              "type": "uint256"
            },
            {
              "internalType": "bool",
              "name": "hasVoted",
              "type": "bool"
            },
            {
              "internalType": "bool",
              "name": "isVerified",
              "type": "bool"
            },
            {
              "internalType": "uint256",
              "name": "verifiedTime",
              "type": "uint256"
            },
            {
              "internalType": "uint256",
              "name": "votedTime",
              "type": "uint256"
            }
          ],
          "internalType": "struct VotingSmartContract.Voter",
          "name": "retrievedVoter",
          "type": "tuple"
        }
      ],
      "stateMutability": "view",
      "type": "function",
      "constant": true
    },
    {
      "inputs": [
        {
          "internalType": "uint256[]",
          "name": "decryptedVotes",
          "type": "uint256[]"
        },
        {
          "internalType": "uint256",
          "name": "_mu",
          "type": "uint256"
        },
        {
          "internalType": "uint256",
          "name": "_lambda",
          "type": "uint256"
        }
      ],
      "name": "publishResults",
      "outputs": [],
      "stateMutability": "nonpayable",
      "type": "function"
    },
    {
      "inputs": [
        {
          "internalType": "uint256",
          "name": "uniqueID",
          "type": "uint256"
        }
      ],
      "name": "retrievePublicResults",
      "outputs": [
        {
          "components": [
            {
              "internalType": "string",
              "name": "name",
              "type": "string"
            },
            {
              "internalType": "string",
              "name": "party",
              "type": "string"
            },
            {
              "internalType": "string",
              "name": "description",
              "type": "string"
            },
            {
              "internalType": "uint256",
              "name": "encNumVotes",
              "type": "uint256"
            },
            {
              "internalType": "uint256",
              "name": "constituency",
              "type": "uint256"
            },
            {
              "internalType": "uint256",
              "name": "uniqueID",
              "type": "uint256"
            }
          ],
          "internalType": "struct VotingSmartContract.Candidate",
          "name": "retrievedCandidate",
          "type": "tuple"
        }
      ],
      "stateMutability": "view",
      "type": "function",
      "constant": true
    }
  ],
  "bytecode": "0x608060405234801561001057600080fd5b50336000806101000a81548173ffffffffffffffffffffffffffffffffffffffff021916908373ffffffffffffffffffffffffffffffffffffffff1602179055506000801b6001819055506000600281905550600060038190555060006004819055506000600560006101000a81548160ff0219169083151502179055506000600560016101000a81548160ff0219169083151502179055506000600560026101000a81548160ff0219169083151502179055506000600560036101000a81548160ff02191690831515021790555060006006819055506000600781905550614207806100fe6000396000f3fe608060405234801561001057600080fd5b506004361061023d5760003560e01c806362c5d96e1161013b578063ab4f9718116100b8578063ddb835991161007c578063ddb8359914610672578063e2179b8e14610690578063ec1c91bc146106ae578063efb28973146106cc578063f71cf2e7146106ea5761023d565b8063ab4f9718146105f2578063ac60b65714610610578063b21a64da1461062c578063be943a5914610636578063dad0be61146106545761023d565b806399b240a0116100ff57806399b240a014610560578063a05f7fe01461057c578063a45901cf1461059a578063a6e17c06146105b6578063a973d0a2146105d45761023d565b806362c5d96e146104cc57806372711582146104ea57806379684373146105085780637af87410146105265780638f84aa09146105425761023d565b8063372777b0116101c95780634b64af791161018d5780634b64af791461043a57806351baeade1461046a57806353257da61461048657806359f78468146104a45780635c06b06e146104ae5761023d565b8063372777b0146103725780633eb76b9c146103a25780634952c93d146103be57806349f95b5f146103ee5780634a225a7c1461041e5761023d565b80631c0a6b51116102105780631c0a6b51146102cc5780631e620cd4146102fc5780631f827e631461031857806325bd79eb146103365780632e52d606146103545761023d565b80630368a808146102425780630c4f65bd146102605780630dcb8f0a1461027e5780631af106791461029c575b600080fd5b61024a610706565b6040516102579190612dcf565b60405180910390f35b61026861071d565b6040516102759190612e2b565b60405180910390f35b610286610746565b6040516102939190612e5f565b60405180910390f35b6102b660048036038101906102b19190612eba565b61074c565b6040516102c39190612e2b565b60405180910390f35b6102e660048036038101906102e19190612eba565b61078b565b6040516102f39190613013565b60405180910390f35b61031660048036038101906103119190612eba565b6109cd565b005b610320610b49565b60405161032d9190612e5f565b60405180910390f35b61033e610b53565b60405161034b9190612e5f565b60405180910390f35b61035c610b5d565b6040516103699190612e5f565b60405180910390f35b61038c60048036038101906103879190613061565b610b63565b6040516103999190613127565b60405180910390f35b6103bc60048036038101906103b79190612eba565b610d85565b005b6103d860048036038101906103d39190612eba565b6110bb565b6040516103e591906131d9565b60405180910390f35b61040860048036038101906104039190613061565b6113a0565b6040516104159190613307565b60405180910390f35b61043860048036038101906104339190613471565b611656565b005b610454600480360381019061044f9190612eba565b6119bd565b60405161046191906131d9565b60405180910390f35b610484600480360381019061047f9190613595565b611c14565b005b61048e611dba565b60405161049b9190612dcf565b60405180910390f35b6104ac611dd1565b005b6104b6611e97565b6040516104c39190612e5f565b60405180910390f35b6104d4611eae565b6040516104e19190612e5f565b60405180910390f35b6104f2611eb4565b6040516104ff9190612dcf565b60405180910390f35b610510611ecb565b60405161051d9190612dcf565b60405180910390f35b610540600480360381019061053b9190613664565b611ee2565b005b61054a61212e565b6040516105579190612e2b565b60405180910390f35b61057a60048036038101906105759190613780565b612152565b005b6105846123c6565b6040516105919190612e5f565b60405180910390f35b6105b460048036038101906105af9190613841565b6123cc565b005b6105be6126d6565b6040516105cb9190612e5f565b60405180910390f35b6105dc6126dc565b6040516105e99190612e5f565b60405180910390f35b6105fa6126e2565b6040516106079190612e5f565b60405180910390f35b61062a60048036038101906106259190613061565b6126e8565b005b61063461281b565b005b61063e6128eb565b60405161064b919061387d565b60405180910390f35b61065c6128f1565b6040516106699190612e5f565b60405180910390f35b61067a6128f7565b6040516106879190612e5f565b60405180910390f35b6106986128fd565b6040516106a59190612e5f565b60405180910390f35b6106b6612903565b6040516106c39190612e5f565b60405180910390f35b6106d4612909565b6040516106e1919061387d565b60405180910390f35b61070460048036038101906106ff9190613898565b612913565b005b6000600560019054906101000a900460ff16905090565b60008060009054906101000a900473ffffffffffffffffffffffffffffffffffffffff16905090565b60035481565b6010818154811061075c57600080fd5b906000526020600020016000915054906101000a900473ffffffffffffffffffffffffffffffffffffffff1681565b610793612af7565b60006040518060a00160405280600f600086815260200190815260200160002060000180546107c190613982565b80601f01602080910402602001604051908101604052809291908181526020018280546107ed90613982565b801561083a5780601f1061080f5761010080835404028352916020019161083a565b820191906000526020600020905b81548152906001019060200180831161081d57829003601f168201915b50505050508152602001600f6000868152602001908152602001600020600101805461086590613982565b80601f016020809104026020016040519081016040528092919081815260200182805461089190613982565b80156108de5780601f106108b3576101008083540402835291602001916108de565b820191906000526020600020905b8154815290600101906020018083116108c157829003601f168201915b50505050508152602001600f6000868152602001908152602001600020600201805461090990613982565b80601f016020809104026020016040519081016040528092919081815260200182805461093590613982565b80156109825780601f1061095757610100808354040283529160200191610982565b820191906000526020600020905b81548152906001019060200180831161096557829003601f168201915b50505050508152602001600f6000868152602001908152602001600020600401548152602001600f600086815260200190815260200160002060050154815250905080915050919050565b60008054906101000a900473ffffffffffffffffffffffffffffffffffffffff1673ffffffffffffffffffffffffffffffffffffffff163373ffffffffffffffffffffffffffffffffffffffff1614610a5b576040517f08c379a0000000000000000000000000000000000000000000000000000000008152600401610a5290613a82565b60405180910390fd5b60001515600560029054906101000a900460ff161515148015610a91575060001515600560039054906101000a900460ff161515145b610ad0576040517f08c379a0000000000000000000000000000000000000000000000000000000008152600401610ac790613b3a565b60405180910390fd5b600f600082815260200190815260200160002060008082016000610af49190612b26565b600182016000610b049190612b26565b600282016000610b149190612b26565b600382016000905560048201600090556005820160009055505060046000815480929190610b4190613b89565b919050555050565b6000600354905090565b6000600254905090565b60085481565b610b6b612b66565b60006040518060c00160405280601160008673ffffffffffffffffffffffffffffffffffffffff1673ffffffffffffffffffffffffffffffffffffffff16815260200190815260200160002060000160009054906101000a900473ffffffffffffffffffffffffffffffffffffffff1673ffffffffffffffffffffffffffffffffffffffff168152602001601160008673ffffffffffffffffffffffffffffffffffffffff1673ffffffffffffffffffffffffffffffffffffffff168152602001908152602001600020600301548152602001601160008673ffffffffffffffffffffffffffffffffffffffff1673ffffffffffffffffffffffffffffffffffffffff16815260200190815260200160002060040160009054906101000a900460ff1615158152602001601160008673ffffffffffffffffffffffffffffffffffffffff1673ffffffffffffffffffffffffffffffffffffffff16815260200190815260200160002060040160019054906101000a900460ff1615158152602001601160008673ffffffffffffffffffffffffffffffffffffffff1673ffffffffffffffffffffffffffffffffffffffff168152602001908152602001600020600501548152602001601160008673ffffffffffffffffffffffffffffffffffffffff1673ffffffffffffffffffffffffffffffffffffffff16815260200190815260200160002060060154815250905080915050919050565b60001515601160003373ffffffffffffffffffffffffffffffffffffffff1673ffffffffffffffffffffffffffffffffffffffff16815260200190815260200160002060040160009054906101000a900460ff16151514610e1b576040517f08c379a0000000000000000000000000000000000000000000000000000000008152600401610e1290613c43565b60405180910390fd5b60011515601160003373ffffffffffffffffffffffffffffffffffffffff1673ffffffffffffffffffffffffffffffffffffffff16815260200190815260200160002060040160019054906101000a900460ff16151514610eb1576040517f08c379a0000000000000000000000000000000000000000000000000000000008152600401610ea890613cd5565b60405180910390fd5b60011515600560029054906101000a900460ff16151514610f07576040517f08c379a0000000000000000000000000000000000000000000000000000000008152600401610efe90613d67565b60405180910390fd5b60001515600560039054906101000a900460ff16151514610f5d576040517f08c379a0000000000000000000000000000000000000000000000000000000008152600401610f5490613df9565b60405180910390fd5b600f600082815260200190815260200160002060040154601160003373ffffffffffffffffffffffffffffffffffffffff1673ffffffffffffffffffffffffffffffffffffffff1681526020019081526020016000206003015414610fc157600080fd5b6000600f600083815260200190815260200160002060030154905060006009549050600080600b54905083818480828409945050505081600f6000878152602001908152602001600020600301819055506001601160003373ffffffffffffffffffffffffffffffffffffffff1673ffffffffffffffffffffffffffffffffffffffff16815260200190815260200160002060040160006101000a81548160ff02191690831515021790555042601160003373ffffffffffffffffffffffffffffffffffffffff1673ffffffffffffffffffffffffffffffffffffffff168152602001908152602001600020600601819055505050505050565b6110c3612bb6565b60008054906101000a900473ffffffffffffffffffffffffffffffffffffffff1673ffffffffffffffffffffffffffffffffffffffff163373ffffffffffffffffffffffffffffffffffffffff1614611151576040517f08c379a000000000000000000000000000000000000000000000000000000000815260040161114890613a82565b60405180910390fd5b60011515600560039054906101000a900460ff161515146111a7576040517f08c379a000000000000000000000000000000000000000000000000000000000815260040161119e90613e8b565b60405180910390fd5b600f60008381526020019081526020016000206040518060c00160405290816000820180546111d590613982565b80601f016020809104026020016040519081016040528092919081815260200182805461120190613982565b801561124e5780601f106112235761010080835404028352916020019161124e565b820191906000526020600020905b81548152906001019060200180831161123157829003601f168201915b5050505050815260200160018201805461126790613982565b80601f016020809104026020016040519081016040528092919081815260200182805461129390613982565b80156112e05780601f106112b5576101008083540402835291602001916112e0565b820191906000526020600020905b8154815290600101906020018083116112c357829003601f168201915b505050505081526020016002820180546112f990613982565b80601f016020809104026020016040519081016040528092919081815260200182805461132590613982565b80156113725780601f1061134757610100808354040283529160200191611372565b820191906000526020600020905b81548152906001019060200180831161135557829003601f168201915b5050505050815260200160038201548152602001600482015481526020016005820154815250509050919050565b6113a8612bec565b60008054906101000a900473ffffffffffffffffffffffffffffffffffffffff1673ffffffffffffffffffffffffffffffffffffffff163373ffffffffffffffffffffffffffffffffffffffff1614611436576040517f08c379a000000000000000000000000000000000000000000000000000000000815260040161142d90613a82565b60405180910390fd5b601160008373ffffffffffffffffffffffffffffffffffffffff1673ffffffffffffffffffffffffffffffffffffffff168152602001908152602001600020604051806101000160405290816000820160009054906101000a900473ffffffffffffffffffffffffffffffffffffffff1673ffffffffffffffffffffffffffffffffffffffff1673ffffffffffffffffffffffffffffffffffffffff1681526020016001820180546114e790613982565b80601f016020809104026020016040519081016040528092919081815260200182805461151390613982565b80156115605780601f1061153557610100808354040283529160200191611560565b820191906000526020600020905b81548152906001019060200180831161154357829003601f168201915b5050505050815260200160028201805461157990613982565b80601f01602080910402602001604051908101604052809291908181526020018280546115a590613982565b80156115f25780601f106115c7576101008083540402835291602001916115f2565b820191906000526020600020905b8154815290600101906020018083116115d557829003601f168201915b50505050508152602001600382015481526020016004820160009054906101000a900460ff161515151581526020016004820160019054906101000a900460ff16151515158152602001600582015481526020016006820154815250509050919050565b60008054906101000a900473ffffffffffffffffffffffffffffffffffffffff1673ffffffffffffffffffffffffffffffffffffffff163373ffffffffffffffffffffffffffffffffffffffff16146116e4576040517f08c379a00000000000000000000000000000000000000000000000000000000081526004016116db90613a82565b60405180910390fd5b60011515600560039054906101000a900460ff1615151461173a576040517f08c379a000000000000000000000000000000000000000000000000000000000815260040161173190613f1d565b60405180910390fd5b60005b6003548110156119b75760006040518060c00160405280600f6000858152602001908152602001600020600001805461177590613982565b80601f01602080910402602001604051908101604052809291908181526020018280546117a190613982565b80156117ee5780601f106117c3576101008083540402835291602001916117ee565b820191906000526020600020905b8154815290600101906020018083116117d157829003601f168201915b50505050508152602001600f6000858152602001908152602001600020600101805461181990613982565b80601f016020809104026020016040519081016040528092919081815260200182805461184590613982565b80156118925780601f1061186757610100808354040283529160200191611892565b820191906000526020600020905b81548152906001019060200180831161187557829003601f168201915b505050505081526020016040518060200160405280600081525081526020018684815181106118c4576118c3613f3d565b5b60200260200101518152602001600f6000858152602001908152602001600020600401548152602001600f600085815260200190815260200160002060050154815250905080601260008481526020019081526020016000206000820151816000019080519060200190611939929190612c4b565b506020820151816001019080519060200190611956929190612c4b565b506040820151816002019080519060200190611973929190612c4b565b50606082015181600301556080820151816004015560a0820151816005015590505083600d8190555082600e819055505080806119af90613b89565b91505061173d565b50505050565b6119c5612bb6565b60011515600560039054906101000a900460ff16151514611a1b576040517f08c379a0000000000000000000000000000000000000000000000000000000008152600401611a1290613e8b565b60405180910390fd5b601260008381526020019081526020016000206040518060c0016040529081600082018054611a4990613982565b80601f0160208091040260200160405190810160405280929190818152602001828054611a7590613982565b8015611ac25780601f10611a9757610100808354040283529160200191611ac2565b820191906000526020600020905b815481529060010190602001808311611aa557829003601f168201915b50505050508152602001600182018054611adb90613982565b80601f0160208091040260200160405190810160405280929190818152602001828054611b0790613982565b8015611b545780601f10611b2957610100808354040283529160200191611b54565b820191906000526020600020905b815481529060010190602001808311611b3757829003601f168201915b50505050508152602001600282018054611b6d90613982565b80601f0160208091040260200160405190810160405280929190818152602001828054611b9990613982565b8015611be65780601f10611bbb57610100808354040283529160200191611be6565b820191906000526020600020905b815481529060010190602001808311611bc957829003601f168201915b5050505050815260200160038201548152602001600482015481526020016005820154815250509050919050565b60008054906101000a900473ffffffffffffffffffffffffffffffffffffffff1673ffffffffffffffffffffffffffffffffffffffff163373ffffffffffffffffffffffffffffffffffffffff1614611ca2576040517f08c379a0000000000000000000000000000000000000000000000000000000008152600401611c9990613a82565b60405180910390fd5b60001515600560029054906101000a900460ff161515148015611cd8575060001515600560039054906101000a900460ff161515145b611d17576040517f08c379a0000000000000000000000000000000000000000000000000000000008152600401611d0e90614004565b60405180910390fd5b83600f60008781526020019081526020016000206000019080519060200190611d41929190612c4b565b5082600f60008781526020019081526020016000206001019080519060200190611d6c929190612c4b565b5081600f60008781526020019081526020016000206002019080519060200190611d97929190612c4b565b5080600f6000878152602001908152602001600020600401819055505050505050565b6000600560009054906101000a900460ff16905090565b60008054906101000a900473ffffffffffffffffffffffffffffffffffffffff1673ffffffffffffffffffffffffffffffffffffffff163373ffffffffffffffffffffffffffffffffffffffff1614611e5f576040517f08c379a0000000000000000000000000000000000000000000000000000000008152600401611e5690613a82565b60405180910390fd5b6001600560036101000a81548160ff0219169083151502179055506000600560026101000a81548160ff021916908315150217905550565b6000600454600354611ea99190614024565b905090565b600a5481565b6000600560039054906101000a900460ff16905090565b6000600560029054906101000a900460ff16905090565b60008054906101000a900473ffffffffffffffffffffffffffffffffffffffff1673ffffffffffffffffffffffffffffffffffffffff163373ffffffffffffffffffffffffffffffffffffffff1614611f70576040517f08c379a0000000000000000000000000000000000000000000000000000000008152600401611f6790613a82565b60405180910390fd5b836008819055508260098190555084600c8190555081600a8190555080600b81905550600060065403612064576001600560026101000a81548160ff0219169083151502179055506000600560036101000a81548160ff0219169083151502179055506000600560006101000a81548160ff0219169083151502179055506001600560016101000a81548160ff02191690831515021790555060005b60035481101561204657600a54600f600083815260200190815260200160002060030181905550808061203e90613b89565b91505061200c565b506006600081548092919061205a90613b89565b9190505550612127565b60005b6003548110156120a157600a54600f600083815260200190815260200160002060030181905550808061209990613b89565b915050612067565b506001600560026101000a81548160ff0219169083151502179055506000600560036101000a81548160ff0219169083151502179055506000600560006101000a81548160ff0219169083151502179055506001600560016101000a81548160ff0219169083151502179055506006600081548092919061212190613b89565b91905055505b5050505050565b60008054906101000a900473ffffffffffffffffffffffffffffffffffffffff1681565b60011515600560009054906101000a900460ff161515148015612188575060001515600560019054906101000a900460ff161515145b6121c7576040517f08c379a00000000000000000000000000000000000000000000000000000000081526004016121be906140ca565b60405180910390fd5b60006040518061010001604052803373ffffffffffffffffffffffffffffffffffffffff168152602001858152602001848152602001838152602001600015158152602001600015158152602001600081526020016000815250905080601160003373ffffffffffffffffffffffffffffffffffffffff1673ffffffffffffffffffffffffffffffffffffffff16815260200190815260200160002060008201518160000160006101000a81548173ffffffffffffffffffffffffffffffffffffffff021916908373ffffffffffffffffffffffffffffffffffffffff16021790555060208201518160010190805190602001906122c6929190612cd1565b5060408201518160020190805190602001906122e3929190612cd1565b506060820151816003015560808201518160040160006101000a81548160ff02191690831515021790555060a08201518160040160016101000a81548160ff02191690831515021790555060c0820151816005015560e082015181600601559050506010339080600181540180825580915050600190039060005260206000200160009091909190916101000a81548173ffffffffffffffffffffffffffffffffffffffff021916908373ffffffffffffffffffffffffffffffffffffffff160217905550600260008154809291906123bb90613b89565b919050555050505050565b60045481565b60008054906101000a900473ffffffffffffffffffffffffffffffffffffffff1673ffffffffffffffffffffffffffffffffffffffff163373ffffffffffffffffffffffffffffffffffffffff161461245a576040517f08c379a000000000000000000000000000000000000000000000000000000000815260040161245190613a82565b60405180910390fd5b6000600754036124be57806001819055506001600560006101000a81548160ff0219169083151502179055506000600560016101000a81548160ff021916908315150217905550600760008154809291906124b490613b89565b91905055506126d3565b60006124c8610b53565b905060005b818110156126365760116000601083815481106124ed576124ec613f3d565b5b9060005260206000200160009054906101000a900473ffffffffffffffffffffffffffffffffffffffff1673ffffffffffffffffffffffffffffffffffffffff1673ffffffffffffffffffffffffffffffffffffffff168152602001908152602001600020600080820160006101000a81549073ffffffffffffffffffffffffffffffffffffffff021916905560018201600061258a9190612d57565b60028201600061259a9190612d57565b60038201600090556004820160006101000a81549060ff02191690556004820160016101000a81549060ff021916905560058201600090556006820160009055505060108054806125ee576125ed6140ea565b5b6001900381819060005260206000200160006101000a81549073ffffffffffffffffffffffffffffffffffffffff02191690559055808061262e90613b89565b9150506124cd565b5060005b600354811015612673576000600f600083815260200190815260200160002060030181905550808061266b90613b89565b91505061263a565b506000600281905550816001819055506001600560006101000a81548160ff0219169083151502179055506000600560016101000a81548160ff021916908315150217905550600760008154809291906126cc90613b89565b9190505550505b50565b60075481565b60065481565b600d5481565b60008054906101000a900473ffffffffffffffffffffffffffffffffffffffff1673ffffffffffffffffffffffffffffffffffffffff163373ffffffffffffffffffffffffffffffffffffffff1614612776576040517f08c379a000000000000000000000000000000000000000000000000000000000815260040161276d90613a82565b60405180910390fd5b6001601160008373ffffffffffffffffffffffffffffffffffffffff1673ffffffffffffffffffffffffffffffffffffffff16815260200190815260200160002060040160016101000a81548160ff02191690831515021790555042601160008373ffffffffffffffffffffffffffffffffffffffff1673ffffffffffffffffffffffffffffffffffffffff1681526020019081526020016000206005018190555050565b60008054906101000a900473ffffffffffffffffffffffffffffffffffffffff1673ffffffffffffffffffffffffffffffffffffffff163373ffffffffffffffffffffffffffffffffffffffff16146128a9576040517f08c379a00000000000000000000000000000000000000000000000000000000081526004016128a090613a82565b60405180910390fd5b6000801b6001819055506001600560016101000a81548160ff0219169083151502179055506000600560006101000a81548160ff021916908315150217905550565b60015481565b600e5481565b60095481565b600c5481565b600b5481565b6000600154905090565b60008054906101000a900473ffffffffffffffffffffffffffffffffffffffff1673ffffffffffffffffffffffffffffffffffffffff163373ffffffffffffffffffffffffffffffffffffffff16146129a1576040517f08c379a000000000000000000000000000000000000000000000000000000000815260040161299890613a82565b60405180910390fd5b60001515600560029054906101000a900460ff1615151480156129d7575060001515600560039054906101000a900460ff161515145b612a16576040517f08c379a0000000000000000000000000000000000000000000000000000000008152600401612a0d906141b1565b60405180910390fd5b60006040518060c0016040528086815260200185815260200184815260200160008152602001838152602001600354815250905080600f600060035481526020019081526020016000206000820151816000019080519060200190612a7c929190612c4b565b506020820151816001019080519060200190612a99929190612c4b565b506040820151816002019080519060200190612ab6929190612c4b565b50606082015181600301556080820151816004015560a0820151816005015590505060036000815480929190612aeb90613b89565b91905055505050505050565b6040518060a0016040528060608152602001606081526020016060815260200160008152602001600081525090565b508054612b3290613982565b6000825580601f10612b445750612b63565b601f016020900490600052602060002090810190612b629190612d97565b5b50565b6040518060c00160405280600073ffffffffffffffffffffffffffffffffffffffff1681526020016000815260200160001515815260200160001515815260200160008152602001600081525090565b6040518060c001604052806060815260200160608152602001606081526020016000815260200160008152602001600081525090565b604051806101000160405280600073ffffffffffffffffffffffffffffffffffffffff16815260200160608152602001606081526020016000815260200160001515815260200160001515815260200160008152602001600081525090565b828054612c5790613982565b90600052602060002090601f016020900481019282612c795760008555612cc0565b82601f10612c9257805160ff1916838001178555612cc0565b82800160010185558215612cc0579182015b82811115612cbf578251825591602001919060010190612ca4565b5b509050612ccd9190612d97565b5090565b828054612cdd90613982565b90600052602060002090601f016020900481019282612cff5760008555612d46565b82601f10612d1857805160ff1916838001178555612d46565b82800160010185558215612d46579182015b82811115612d45578251825591602001919060010190612d2a565b5b509050612d539190612d97565b5090565b508054612d6390613982565b6000825580601f10612d755750612d94565b601f016020900490600052602060002090810190612d939190612d97565b5b50565b5b80821115612db0576000816000905550600101612d98565b5090565b60008115159050919050565b612dc981612db4565b82525050565b6000602082019050612de46000830184612dc0565b92915050565b600073ffffffffffffffffffffffffffffffffffffffff82169050919050565b6000612e1582612dea565b9050919050565b612e2581612e0a565b82525050565b6000602082019050612e406000830184612e1c565b92915050565b6000819050919050565b612e5981612e46565b82525050565b6000602082019050612e746000830184612e50565b92915050565b6000604051905090565b600080fd5b600080fd5b612e9781612e46565b8114612ea257600080fd5b50565b600081359050612eb481612e8e565b92915050565b600060208284031215612ed057612ecf612e84565b5b6000612ede84828501612ea5565b91505092915050565b600081519050919050565b600082825260208201905092915050565b60005b83811015612f21578082015181840152602081019050612f06565b83811115612f30576000848401525b50505050565b6000601f19601f8301169050919050565b6000612f5282612ee7565b612f5c8185612ef2565b9350612f6c818560208601612f03565b612f7581612f36565b840191505092915050565b612f8981612e46565b82525050565b600060a0830160008301518482036000860152612fac8282612f47565b91505060208301518482036020860152612fc68282612f47565b91505060408301518482036040860152612fe08282612f47565b9150506060830151612ff56060860182612f80565b5060808301516130086080860182612f80565b508091505092915050565b6000602082019050818103600083015261302d8184612f8f565b905092915050565b61303e81612e0a565b811461304957600080fd5b50565b60008135905061305b81613035565b92915050565b60006020828403121561307757613076612e84565b5b60006130858482850161304c565b91505092915050565b61309781612e0a565b82525050565b6130a681612db4565b82525050565b60c0820160008201516130c2600085018261308e565b5060208201516130d56020850182612f80565b5060408201516130e8604085018261309d565b5060608201516130fb606085018261309d565b50608082015161310e6080850182612f80565b5060a082015161312160a0850182612f80565b50505050565b600060c08201905061313c60008301846130ac565b92915050565b600060c083016000830151848203600086015261315f8282612f47565b915050602083015184820360208601526131798282612f47565b915050604083015184820360408601526131938282612f47565b91505060608301516131a86060860182612f80565b5060808301516131bb6080860182612f80565b5060a08301516131ce60a0860182612f80565b508091505092915050565b600060208201905081810360008301526131f38184613142565b905092915050565b600081519050919050565b600082825260208201905092915050565b6000613222826131fb565b61322c8185613206565b935061323c818560208601612f03565b61324581612f36565b840191505092915050565b600061010083016000830151613269600086018261308e565b50602083015184820360208601526132818282613217565b9150506040830151848203604086015261329b8282613217565b91505060608301516132b06060860182612f80565b5060808301516132c3608086018261309d565b5060a08301516132d660a086018261309d565b5060c08301516132e960c0860182612f80565b5060e08301516132fc60e0860182612f80565b508091505092915050565b600060208201905081810360008301526133218184613250565b905092915050565b600080fd5b7f4e487b7100000000000000000000000000000000000000000000000000000000600052604160045260246000fd5b61336682612f36565b810181811067ffffffffffffffff821117156133855761338461332e565b5b80604052505050565b6000613398612e7a565b90506133a4828261335d565b919050565b600067ffffffffffffffff8211156133c4576133c361332e565b5b602082029050602081019050919050565b600080fd5b60006133ed6133e8846133a9565b61338e565b905080838252602082019050602084028301858111156134105761340f6133d5565b5b835b8181101561343957806134258882612ea5565b845260208401935050602081019050613412565b5050509392505050565b600082601f83011261345857613457613329565b5b81356134688482602086016133da565b91505092915050565b60008060006060848603121561348a57613489612e84565b5b600084013567ffffffffffffffff8111156134a8576134a7612e89565b5b6134b486828701613443565b93505060206134c586828701612ea5565b92505060406134d686828701612ea5565b9150509250925092565b600080fd5b600067ffffffffffffffff821115613500576134ff61332e565b5b61350982612f36565b9050602081019050919050565b82818337600083830152505050565b6000613538613533846134e5565b61338e565b905082815260208101848484011115613554576135536134e0565b5b61355f848285613516565b509392505050565b600082601f83011261357c5761357b613329565b5b813561358c848260208601613525565b91505092915050565b600080600080600060a086880312156135b1576135b0612e84565b5b60006135bf88828901612ea5565b955050602086013567ffffffffffffffff8111156135e0576135df612e89565b5b6135ec88828901613567565b945050604086013567ffffffffffffffff81111561360d5761360c612e89565b5b61361988828901613567565b935050606086013567ffffffffffffffff81111561363a57613639612e89565b5b61364688828901613567565b925050608061365788828901612ea5565b9150509295509295909350565b600080600080600060a086880312156136805761367f612e84565b5b600061368e88828901612ea5565b955050602061369f88828901612ea5565b94505060406136b088828901612ea5565b93505060606136c188828901612ea5565b92505060806136d288828901612ea5565b9150509295509295909350565b600067ffffffffffffffff8211156136fa576136f961332e565b5b61370382612f36565b9050602081019050919050565b600061372361371e846136df565b61338e565b90508281526020810184848401111561373f5761373e6134e0565b5b61374a848285613516565b509392505050565b600082601f83011261376757613766613329565b5b8135613777848260208601613710565b91505092915050565b60008060006060848603121561379957613798612e84565b5b600084013567ffffffffffffffff8111156137b7576137b6612e89565b5b6137c386828701613752565b935050602084013567ffffffffffffffff8111156137e4576137e3612e89565b5b6137f086828701613752565b925050604061380186828701612ea5565b9150509250925092565b6000819050919050565b61381e8161380b565b811461382957600080fd5b50565b60008135905061383b81613815565b92915050565b60006020828403121561385757613856612e84565b5b60006138658482850161382c565b91505092915050565b6138778161380b565b82525050565b6000602082019050613892600083018461386e565b92915050565b600080600080608085870312156138b2576138b1612e84565b5b600085013567ffffffffffffffff8111156138d0576138cf612e89565b5b6138dc87828801613567565b945050602085013567ffffffffffffffff8111156138fd576138fc612e89565b5b61390987828801613567565b935050604085013567ffffffffffffffff81111561392a57613929612e89565b5b61393687828801613567565b925050606061394787828801612ea5565b91505092959194509250565b7f4e487b7100000000000000000000000000000000000000000000000000000000600052602260045260246000fd5b6000600282049050600182168061399a57607f821691505b6020821081036139ad576139ac613953565b5b50919050565b600082825260208201905092915050565b7f4f6e6c792061646d696e732063616e20706572666f726d20746869732061637460008201527f696f6e2e20496620796f752061726520616e2061646d696e2c20706c6561736560208201527f206c6f67696e20696e746f20612077686974656c6973746564206163636f756e60408201527f7400000000000000000000000000000000000000000000000000000000000000606082015250565b6000613a6c6061836139b3565b9150613a77826139c4565b608082019050919050565b60006020820190508181036000830152613a9b81613a5f565b9050919050565b7f596f752063616e6e6f7420656469742063616e64696461746573206f6e63652060008201527f74686520656c656374696f6e206861732073746172746564206f7220616c726560208201527f61647920656e6465640000000000000000000000000000000000000000000000604082015250565b6000613b246049836139b3565b9150613b2f82613aa2565b606082019050919050565b60006020820190508181036000830152613b5381613b17565b9050919050565b7f4e487b7100000000000000000000000000000000000000000000000000000000600052601160045260246000fd5b6000613b9482612e46565b91507fffffffffffffffffffffffffffffffffffffffffffffffffffffffffffffffff8203613bc657613bc5613b5a565b5b600182019050919050565b7f41207061727469636970616e742063616e20636173742061207369676c65207660008201527f6f7465206f6e6c79210000000000000000000000000000000000000000000000602082015250565b6000613c2d6029836139b3565b9150613c3882613bd1565b604082019050919050565b60006020820190508181036000830152613c5c81613c20565b9050919050565b7f43616e6e6f74206361737420766f7465206265666f7265206265696e6720617060008201527f70726f76656420627920616e2061646d696e2100000000000000000000000000602082015250565b6000613cbf6033836139b3565b9150613cca82613c63565b604082019050919050565b60006020820190508181036000830152613cee81613cb2565b9050919050565b7f54686520766f74696e672073657373696f6e20686173206e6f7420737461727460008201527f6564207965742100000000000000000000000000000000000000000000000000602082015250565b6000613d516027836139b3565b9150613d5c82613cf5565b604082019050919050565b60006020820190508181036000830152613d8081613d44565b9050919050565b7f54686520766f74696e672073657373696f6e2068617320616c7265616479206560008201527f6e64656421000000000000000000000000000000000000000000000000000000602082015250565b6000613de36025836139b3565b9150613dee82613d87565b604082019050919050565b60006020820190508181036000830152613e1281613dd6565b9050919050565b7f526573756c74732063616e6e6f742062652072657665616c656420756e74696c60008201527f2074686520656c656374696f6e2073657373696f6e20656e6473210000000000602082015250565b6000613e75603b836139b3565b9150613e8082613e19565b604082019050919050565b60006020820190508181036000830152613ea481613e68565b9050919050565b7f526573756c74732063616e6e6f74206265207075626c697368656420756e746960008201527f6c2074686520656c656374696f6e2073657373696f6e20656e64732100000000602082015250565b6000613f07603c836139b3565b9150613f1282613eab565b604082019050919050565b60006020820190508181036000830152613f3681613efa565b9050919050565b7f4e487b7100000000000000000000000000000000000000000000000000000000600052603260045260246000fd5b7f41646d696e732063616e6e6f7420656469742063616e64696461746573206f6e60008201527f63652074686520656c656374696f6e206861732073746172746564206f72206160208201527f6c726561647920656e6465640000000000000000000000000000000000000000604082015250565b6000613fee604c836139b3565b9150613ff982613f6c565b606082019050919050565b6000602082019050818103600083015261401d81613fe1565b9050919050565b600061402f82612e46565b915061403a83612e46565b92508282101561404d5761404c613b5a565b5b828203905092915050565b7f596f752063616e206f6e6c792061706c7920746f20766f746520696e20616e2060008201527f6f70656e20726567697374726174696f6e207068617365000000000000000000602082015250565b60006140b46037836139b3565b91506140bf82614058565b604082019050919050565b600060208201905081810360008301526140e3816140a7565b9050919050565b7f4e487b7100000000000000000000000000000000000000000000000000000000600052603160045260246000fd5b7f4e65772063616e646964617465732063616e6e6f74206265206164646564206f60008201527f6e63652074686520656c656374696f6e20616c7265616479207374617274656460208201527f206f7220656e6465640000000000000000000000000000000000000000000000604082015250565b600061419b6049836139b3565b91506141a682614119565b606082019050919050565b600060208201905081810360008301526141ca8161418e565b905091905056fea2646970667358221220add130b5842e0791db80d8a6df5bdf4450dda557a68e639628242a78f39e8c4364736f6c634300080d0033",
  "immutableReferences": {},
  "source": "// SPDX-License-Identifier: MIT\r\npragma solidity >=0.8.13;\r\n\r\ncontract VotingSmartContract {\r\n    address public ownerAddress; // Deployer of smart contract address\r\n    bytes32 public adminPublicKey; // Admin public key for data encryption\r\n    uint256 numVoters; // Number of voters in the election\r\n    uint256 public numCandidatesRegistered; // Number of candidates in the election\r\n    uint256 public numDeletedCandidates; // Numbers of candidates deleted before the election starts\r\n\r\n    bool registrationStarted; // True if registration started, false if not\r\n    bool registrationEnded; // True if registration ended, false if not\r\n    bool sessionStarted; // True if election started, false if not\r\n    bool sessionEnded; // True if election ended, false if not\r\n\r\n    uint256 public votingPhaseCounter;\r\n    uint256 public registrationPhaseCounter;\r\n\r\n    ///// Homomorphic encryption for vote count\r\n\r\n    // Public key for homomorphic encryption\r\n    uint256 public n; // property of the public key\r\n    uint256 public nSquared;\r\n    uint256 public initialZeroCount; // the initial '0' votes for each candidate\r\n    uint256 public encIncrement; // the encrypted '1' value everyone adds\r\n    uint256 public g; // property of the public key\r\n\r\n    // Private key for homomorphic decryption - to be published when election ends\r\n    uint256 public mu;\r\n    uint256 public lambda;\r\n\r\n    // Constructor to set the default values\r\n    constructor() {\r\n        ownerAddress = msg.sender;\r\n        adminPublicKey = 0; // adminPublicKey = 0x0000....\r\n        numVoters = 0;\r\n        numCandidatesRegistered = 0;\r\n        numDeletedCandidates = 0;\r\n        registrationStarted = false;\r\n        registrationEnded = false;\r\n        sessionStarted = false;\r\n        sessionEnded = false;\r\n        votingPhaseCounter = 0;\r\n        registrationPhaseCounter = 0;\r\n    }\r\n\r\n    // Function to return address of smart contract owner = getOwner\r\n    function getOwnerAddress() public view returns (address) {\r\n        return ownerAddress;\r\n    }\r\n\r\n    // Section that only the election administrator can access = onlyAdmin\r\n    // Modifier that allows only owner of the contract/admin of election to perform action\r\n    modifier adminPermissionsOnly() {\r\n        require(\r\n            msg.sender == ownerAddress,\r\n            \"Only admins can perform this action. If you are an admin, please login into a whitelisted account\"\r\n        );\r\n        _;\r\n    }\r\n\r\n    // Structure for the properties of an election candidate\r\n    struct Candidate {\r\n        string name;\r\n        string party;\r\n        string description; //\r\n        uint256 encNumVotes; //\r\n        uint256 constituency;\r\n        uint256 uniqueID; //\r\n    }\r\n\r\n    // Structure for publicly available properties of a candidate\r\n    struct CandidatePublicData {\r\n        string name;\r\n        string party;\r\n        string description;\r\n        uint256 constituency;\r\n        uint256 uniqueID;\r\n    }\r\n\r\n    // Mapping each candidate to an uint id\r\n    mapping(uint256 => Candidate) private candidatesHashMap; //\r\n\r\n    // Function to add candidates. Only admins are able to add new candidates \r\n\r\n    function registerCandidate(\r\n        string memory _name,\r\n        string memory _party,\r\n        string memory _description,\r\n        uint256 _constituency\r\n    ) public adminPermissionsOnly {\r\n        require(\r\n            sessionStarted == false && sessionEnded == false,\r\n            \"New candidates cannot be added once the election already started or ended\"\r\n        );\r\n\r\n        Candidate memory newCandidate = Candidate({\r\n            name: _name,\r\n            party: _party,\r\n            description: _description,\r\n            encNumVotes: 0,\r\n            constituency: _constituency,\r\n            uniqueID: numCandidatesRegistered\r\n        });\r\n\r\n        candidatesHashMap[numCandidatesRegistered] = newCandidate;\r\n        numCandidatesRegistered++;\r\n    }\r\n\r\n    function editCandidate(\r\n        uint256 uniqueID,\r\n        string memory _name,\r\n        string memory _party,\r\n        string memory _description,\r\n        uint256 _constituency\r\n    ) external adminPermissionsOnly {\r\n        require(\r\n            sessionStarted == false && sessionEnded == false,\r\n            \"Admins cannot edit candidates once the election has started or already ended\"\r\n        );\r\n        candidatesHashMap[uniqueID].name = _name;\r\n        candidatesHashMap[uniqueID].party = _party;\r\n        candidatesHashMap[uniqueID].description = _description;\r\n        candidatesHashMap[uniqueID].constituency = _constituency;\r\n    }\r\n\r\n    function deleteCandidate(uint256 uniqueID) external adminPermissionsOnly {\r\n        require(\r\n            sessionStarted == false && sessionEnded == false,\r\n            \"You cannot edit candidates once the election has started or already ended\"\r\n        );\r\n        delete candidatesHashMap[uniqueID];\r\n        numDeletedCandidates++;\r\n    }\r\n\r\n    // Function to return the total number of candidates initially registered into the app (without the deleted ones)\r\n\r\n    function getCandidatesCounter() public view returns (uint256) {\r\n        return numCandidatesRegistered;\r\n    }\r\n\r\n    // Function to return the total number of candidates participating in current election = getCandidateNumber\r\n\r\n    function getNumCandidates() public view returns (uint256) {\r\n        return numCandidatesRegistered - numDeletedCandidates;\r\n    }\r\n\r\n    // Structure describing the properties of a generic voter in the current election\r\n    struct Voter {\r\n        address voterAddress;\r\n        bytes name;\r\n        bytes cnp;\r\n        uint256 constituency;\r\n        bool hasVoted;\r\n        bool isVerified;\r\n        uint verifiedTime;\r\n        uint votedTime;\r\n    }\r\n\r\n    // Structure describing the publicly & privately available info about a voter\r\n    struct VoterPublicData {\r\n        address voterAddress;\r\n        uint256 constituency;\r\n        bool hasVoted;\r\n        bool isVerified;\r\n        uint verifiedTime;\r\n        uint votedTime;\r\n    }\r\n\r\n    // Array of addresses to store the public addresses of the voters\r\n    address[] public votersAddresses; \r\n\r\n    // Mapping of each voter to a certain public address\r\n    mapping(address => Voter) private votersHashMap; //\r\n\r\n    // Function by which a voter requires participation rights in the election. Admin has to approve requests = requestVoter\r\n\r\n    function applyToVote(\r\n        bytes memory _name,\r\n        bytes memory _cnp,\r\n        uint256 _constituency\r\n    ) public {\r\n        require(\r\n            registrationStarted == true && registrationEnded == false,\r\n            \"You can only aply to vote in an open registration phase\"\r\n        );\r\n\r\n        Voter memory newVoter = Voter({\r\n            voterAddress: msg.sender,\r\n            name: _name,\r\n            cnp: _cnp,\r\n            constituency: _constituency,\r\n            hasVoted: false,\r\n            isVerified: false,\r\n            verifiedTime: 0,\r\n            votedTime: 0\r\n        });\r\n\r\n        votersHashMap[msg.sender] = newVoter;\r\n        votersAddresses.push(msg.sender);\r\n        numVoters++;\r\n    }\r\n\r\n    // Function returning the total number of voters participating in the election = getVoterCount\r\n    function getNumVoters() public view returns (uint256) {\r\n        return numVoters;\r\n    }\r\n\r\n    // Function that allows other to get the admin public key\r\n    function getAdminPublicKey() public view returns (bytes32) {\r\n        return adminPublicKey;\r\n    }\r\n\r\n    // Function that allows an election admin to approve a request of participation in the current election session = verifyVoter\r\n    function approveParticipationRequest(address _address)\r\n        public\r\n        adminPermissionsOnly\r\n    {\r\n        votersHashMap[_address].isVerified = true;\r\n        votersHashMap[_address].verifiedTime = block.timestamp;\r\n    }\r\n\r\n    // Function that allows voting for a candidate, Only verified voters are allowed = vote\r\n    function castVote(uint256 uniqueID) public {\r\n        require(\r\n            votersHashMap[msg.sender].hasVoted == false,\r\n            \"A participant can cast a sigle vote only!\"\r\n        );\r\n        require(\r\n            votersHashMap[msg.sender].isVerified == true,\r\n            \"Cannot cast vote before being approved by an admin!\"\r\n        );\r\n        require(\r\n            sessionStarted == true,\r\n            \"The voting session has not started yet!\"\r\n        );\r\n        require(sessionEnded == false, \"The voting session has already ended!\");\r\n\r\n        require(\r\n            votersHashMap[msg.sender].constituency ==\r\n                candidatesHashMap[uniqueID].constituency\r\n        );\r\n\r\n        // Homomorphic add\r\n\r\n        uint256 encNumVotesInner = candidatesHashMap[uniqueID].encNumVotes;\r\n        uint256 nSquaredInner = nSquared;\r\n        uint256 encNumVotesTemp;\r\n        uint256 encIncrementInner = encIncrement;\r\n        assembly {\r\n            \r\n            let _encNumVotes := encNumVotesInner\r\n            let _encIncrement := encIncrementInner\r\n            let _nSquared := nSquaredInner\r\n            encNumVotesTemp := mulmod(\r\n                _encNumVotes,\r\n                _encIncrement,\r\n                _nSquared\r\n            )\r\n        }\r\n        candidatesHashMap[uniqueID].encNumVotes = encNumVotesTemp;\r\n\r\n        votersHashMap[msg.sender].hasVoted = true;\r\n        votersHashMap[msg.sender].votedTime = block.timestamp;\r\n    }\r\n\r\n    // Function that allows admin to publish public key/start registration phase\r\n    function startRegistrationPhase(bytes32 publishedKey)\r\n        public\r\n        adminPermissionsOnly\r\n    {\r\n        if (registrationPhaseCounter == 0) {\r\n            adminPublicKey = publishedKey;\r\n            registrationStarted = true;\r\n            registrationEnded = false;\r\n\r\n            registrationPhaseCounter++;\r\n        } else {\r\n            uint256 noVoters = getNumVoters();\r\n            for (uint256 i = 0; i < noVoters; i++) {\r\n                delete votersHashMap[votersAddresses[i]];\r\n                votersAddresses.pop();\r\n            }\r\n\r\n            for (uint256 id = 0; id < numCandidatesRegistered; id++) {\r\n                candidatesHashMap[id].encNumVotes = 0;\r\n            }\r\n\r\n            numVoters = 0;\r\n\r\n            adminPublicKey = publishedKey;\r\n            registrationStarted = true;\r\n            registrationEnded = false;\r\n\r\n            registrationPhaseCounter++;\r\n        }\r\n    }\r\n\r\n    function endRegistrationPhase() public adminPermissionsOnly {\r\n        adminPublicKey = 0;\r\n        registrationEnded = true;\r\n        registrationStarted = false;\r\n    }\r\n\r\n    // Function to start a current election session. Can only be called by election admin\r\n    function startElection(uint256 _g, uint256 _n, uint256 _nSquared, uint256 _initialZeroCount, uint256 _encIncrement) public adminPermissionsOnly {\r\n\r\n        n = _n;\r\n        nSquared = _nSquared;\r\n        g = _g;\r\n        initialZeroCount = _initialZeroCount;\r\n        encIncrement = _encIncrement;\r\n\r\n        if (votingPhaseCounter == 0) {\r\n            sessionStarted = true;\r\n            sessionEnded = false;\r\n\r\n            registrationStarted = false;\r\n            registrationEnded = true;\r\n\r\n             for (uint256 id = 0; id < numCandidatesRegistered; id++) {\r\n                candidatesHashMap[id].encNumVotes = initialZeroCount;\r\n            }\r\n\r\n            votingPhaseCounter++;\r\n\r\n\r\n        } else {\r\n\r\n\r\n             for (uint256 id = 0; id < numCandidatesRegistered; id++) {\r\n                candidatesHashMap[id].encNumVotes = initialZeroCount;\r\n            }\r\n           \r\n\r\n            sessionStarted = true;\r\n            sessionEnded = false;\r\n\r\n            registrationStarted = false;\r\n            registrationEnded = true;\r\n\r\n            votingPhaseCounter++;\r\n        }\r\n    }\r\n\r\n    // Function to end the current election session. Can only be called by election admin\r\n    function endElection() public adminPermissionsOnly {\r\n        sessionEnded = true;\r\n        sessionStarted = false;\r\n    }\r\n\r\n    // Getters for the registration phase\r\n\r\n    function hasRegistrationStarted() public view returns (bool) {\r\n        return registrationStarted;\r\n    }\r\n\r\n    function hasRegistrationEnded() public view returns (bool) {\r\n        return registrationEnded;\r\n    }\r\n\r\n    // Getters for the current election state = getStart/getEnd\r\n    function getStartStatus() public view returns (bool) {\r\n        return sessionStarted;\r\n    }\r\n\r\n    function getEndStatus() public view returns (bool) {\r\n        return sessionEnded;\r\n    }\r\n\r\n    // Retrieve functions for votersHashMap & candidatesHashMap\r\n    function retrieveVoterPublicData(address _address)\r\n        external\r\n        view\r\n        returns (VoterPublicData memory retrievedVoter)\r\n    {\r\n        VoterPublicData memory voterPublicData = VoterPublicData({\r\n            voterAddress: votersHashMap[_address].voterAddress,\r\n            constituency: votersHashMap[_address].constituency,\r\n            hasVoted: votersHashMap[_address].hasVoted,\r\n            isVerified: votersHashMap[_address].isVerified,\r\n            verifiedTime: votersHashMap[_address].verifiedTime,\r\n            votedTime: votersHashMap[_address].votedTime\r\n        });\r\n        return (voterPublicData);\r\n    }\r\n\r\n    function retrieveCandidatePublicData(uint256 uniqueID)\r\n        external\r\n        view\r\n        returns (CandidatePublicData memory retrievedCandidate)\r\n    {\r\n        CandidatePublicData memory candidatePublicData = CandidatePublicData({\r\n            name: candidatesHashMap[uniqueID].name,\r\n            party: candidatesHashMap[uniqueID].party,\r\n            description: candidatesHashMap[uniqueID].description,\r\n            constituency: candidatesHashMap[uniqueID].constituency,\r\n            uniqueID: candidatesHashMap[uniqueID].uniqueID\r\n        });\r\n        return (candidatePublicData);\r\n    }\r\n\r\n    function retrieveAllCandidateData(uint256 uniqueID)\r\n        external\r\n        view\r\n        adminPermissionsOnly\r\n        returns (Candidate memory retrievedCandidate)\r\n    {\r\n        require(\r\n            sessionEnded == true,\r\n            \"Results cannot be revealed until the election session ends!\"\r\n        );\r\n        return (candidatesHashMap[uniqueID]);\r\n    }\r\n\r\n    function retrieveAllVoterData(address _address)\r\n        external\r\n        view\r\n        adminPermissionsOnly\r\n        returns (Voter memory retrievedVoter)\r\n    {\r\n        return votersHashMap[_address];\r\n    }\r\n\r\n\r\n    //////////\r\n    mapping(uint256 => Candidate) private resultsHashMap; \r\n\r\n    function publishResults(uint256[] memory decryptedVotes, uint256 _mu, uint256 _lambda) external adminPermissionsOnly {\r\n\r\n        require(\r\n            sessionEnded == true,\r\n            \"Results cannot be published until the election session ends!\"\r\n        );\r\n\r\n       for(uint256 i=0; i<numCandidatesRegistered; i++)\r\n       {\r\n         Candidate memory newCandidate = Candidate({\r\n            name: candidatesHashMap[i].name,\r\n            party: candidatesHashMap[i].party,\r\n            description: \"\",\r\n            encNumVotes: decryptedVotes[i],\r\n            constituency: candidatesHashMap[i].constituency,\r\n            uniqueID: candidatesHashMap[i].uniqueID\r\n        });\r\n\r\n        resultsHashMap[i] = newCandidate;\r\n        mu = _mu;\r\n        lambda = _lambda;\r\n       }\r\n\r\n    }\r\n\r\n    function retrievePublicResults(uint256 uniqueID)\r\n        external\r\n        view\r\n        returns (Candidate memory retrievedCandidate)\r\n    {\r\n        require(\r\n            sessionEnded == true,\r\n            \"Results cannot be revealed until the election session ends!\"\r\n        );\r\n        return (resultsHashMap[uniqueID]);\r\n    }\r\n\r\n}\r\n",
  "sourcePath": "D:\\PREZENTARE\\ISMBlockVoter\\contracts\\VotingSmartContract.sol",
  "compiler": {
    "name": "solc",
    "version": "0.8.13+commit.abaa5c0e.Emscripten.clang"
  },
  "schemaVersion": "3.4.6",
  "updatedAt": "2022-07-04T13:49:56.637Z",
  "networkType": "ethereum",
  "devdoc": {
    "kind": "dev",
    "methods": {},
    "version": 1
  },
  "userdoc": {
    "kind": "user",
    "methods": {},
    "version": 1
  }
}